:020000040800F2
:10000000001000201D220008D5200008D72000087D
:1000100000000000000000000000000000000000E0
:10002000000000000000000000000000D9200008CF
:100030000000000000000000DB200008DD200008B8
:100040006D22000800000000E52000086D22000875
:100050006D2200086D2200086D2200086D22000844
:10006000000000006D2200086D2200086D220008CB
:10007000FD2000086D2200086D220008000000002D
:100080006D22000800000000000000006D22000842
:10009000000000006D2200086D2200086D2200089B
:1000A000000000006D220008000000006D22000822
:1000B0000000000000000000000000000000000040
:1000C00010B5064C2378002B07D1054B002B02D02E
:1000D000044800E000BF0123237010BD6800002029
:1000E000000000002C2B0008044B10B5002B03D09F
:1000F0000349044800E000BF10BDC04600000000F6
:100100006C0000202C2B000802B4714649084900FD
:10011000095C49008E4402BC7047C0460022430877
:100120008B4274D303098B425FD3030A8B4244D3BF
:10013000030B8B4228D3030C8B420DD3FF22090201
:1001400012BA030C8B4202D31212090265D0030BC0
:100150008B4219D300E0090AC30B8B4201D3CB03B6
:10016000C01A5241830B8B4201D38B03C01A5241F8
:10017000430B8B4201D34B03C01A5241030B8B42FA
:1001800001D30B03C01A5241C30A8B4201D3CB02E5
:10019000C01A5241830A8B4201D38B02C01A5241CA
:1001A000430A8B4201D34B02C01A5241030A8B42CD
:1001B00001D30B02C01A5241CDD2C3098B4201D3E5
:1001C000CB01C01A524183098B4201D38B01C01A63
:1001D000524143098B4201D34B01C01A52410309DA
:1001E0008B4201D30B01C01A5241C3088B4201D389
:1001F000CB00C01A524183088B4201D38B00C01A36
:10020000524143088B4201D34B00C01A5241411A5C
:1002100000D20146524110467047FFE701B5002069
:1002200000F006F802BDC0460029F7D076E7704717
:100230007047C04610B5040000F0F0FEFA218900B6
:10024000FFF76CFF00F052FB01200022210040422A
:1002500000F012FB002010BD1023064A10B51168F3
:1002600000200B431360FFF7E5FF01F01BFF0020A8
:1002700010BDC04600200240024A136801331360DB
:100280007047C04690000020014B18687047C04678
:10029000900000200223024A11680B43136070474C
:1002A00010E000E00321036870B59A6804000A407A
:1002B000012A01D0002070BD1968114202D1DA680C
:1002C0001204F7D505229D681540012D1AD102228E
:1002D00099680A439A6003221A60FFF7D5FF060067
:1002E00023689B682B42E5D0FFF7CEFF801B0228D6
:1002F000F6D91023626C012013436364A36C1D4381
:10030000A564D8E710230120626C13436364A36CD7
:100310000343A364CFE70000002373B503210193D7
:10032000036804009A680A40012A07D1196811423B
:1003300001D0002076BDDA681204FAD49968194A0F
:10034000114208D010230120626C13436364A36C34
:100350000343A364EEE7012299680A439A60124BB3
:1003600012491868FFF7DAFE0190019B002B15D1A6
:10037000FFF78AFF0125060023681B682B42D8D1AE
:10038000FFF782FF801B0228F6D91023626C012040
:1003900013436364A36C2B43A364CBE7019B013B32
:1003A0000193E2E7170000800000002040420F00A8
:1003B0000422036870B599680400114201D100203D
:1003C00070BD9968114206D09A68920703D4102232
:1003D00099680A439A60FFF757FF042506002368CF
:1003E0009B682B42EBD0FFF74FFF801B0228F6D90A
:1003F00010230120626C13436364A36C0343A36462
:10040000DEE70000F8B504000120002C72D0636C18
:10041000002B06D122004032A3642000137001F0AB
:10042000A9FB636CDB0600D579E004222368986899
:10043000104000D073E0626C4249114002220A432E
:10044000032162649A680A40012A00D06DE01968AD
:10045000114202D1DA68120467D5DA683A49256A8E
:100460000A40DA60A2696F039103E269D203114383
:10047000626B013A561EB2411603E26811432269CB
:100480000F43022A00D10420226B616A52003A43D2
:1004900032430243012904D1002D2CD1802149028D
:1004A0000A43C220A16AFF30814202D0E06A0143C0
:1004B0000A438020D96840051143D960A16B81426D
:1004C00002D0481E062807D8072558692940A843A6
:1004D0005861586901435961DB681C490B409A42D5
:1004E00011D100200322A064636C93431A000123FE
:1004F00013436364F8BD2020656C28436064A06CDE
:100500000143A164CDE71222636C012093431A00DA
:10051000102313436364A36C0343A364EAE710232B
:10052000626C012013436364E4E71821DA688A43AC
:10053000A1680A43DA601969626889008908114371
:1005400019618AE7FDFEFFFF1902FEFFE7FF3F8307
:10055000036870B59B68040002205B071AD425006D
:1005600040352B78012B15D001232B70E369012B2B
:1005700011D1636C0B4A00201A4080235B001343A7
:100580001C2263642368A06428701A609968183A72
:100590000A439A6070BD2000FFF7BEFE0028F9D123
:1005A000E7E7C046FEF0FFFF70B50600403633783F
:1005B00004000220012B12D0012520003570FFF726
:1005C000F7FE002809D12000FFF76CFE002804D1B7
:1005D000636C034A13401D4365640023337070BD90
:1005E000FEFEFFFFF8B5456904000E00082D0DD092
:1005F00003680120DB680C25034207D02023626CCE
:1006000040341343636000232370F8BDFFF73CFEC2
:10061000070023681A682A4223D08022616C920066
:100620000A436264C022D9681201114212D1226ABF
:10063000002A0FD11A6812070CD59A68520723D4E2
:100640000C215A688A435A60626C14491140012295
:100650000A4362640020A2698242D6D10C221A6049
:10066000D3E7721CD6D0002E08D10423626C40342C
:1006700013436360002303202370C6E7FFF704FEE3
:10068000C01B8642C5D2F0E72022616C0A43626437
:100690000122A16C0A43A264DCE7C046FEFEFFFF14
:1006A0000368186C704770477047704704220368EE
:1006B00070B519680400114202D05968114206D180
:1006C00008221968114228D05968114225D0626C5D
:1006D000D20604D48022616C92000A436264C02274
:1006E000D9681201114212D1226A002A0FD11A6868
:1006F00012070CD59A6852073CD40C215A688A43D9
:100700005A60636C204A1A4001231343636420003B
:10071000FFF7C9FF0C2223681A60802523681A6836
:100720002A420CD05B682B4209D08023626C5B02AA
:10073000134363642000FFF7B7FF23681D60102296
:1007400023681968114214D05968114211D0626BA4
:10075000012A02D0DA68D20708D50222A16C200053
:100760000A43A26410221A60FFF79FFF1022236839
:100770001A6070BD2023626C134363640123A26C72
:100780001343A364C3E7C046FEFEFFFFF7B5002393
:10079000040001934034237805000220012B2BD064
:1007A00001232A68AE6B90682370400752D42C480E
:1007B0004F680D6887423BD0AB4018008023976A92
:1007C0005B05384390629E420FD0013E062E0CD945
:1007D0008B68072150690840834206D050690B405E
:1007E000884350615069034353612B00103B012B38
:1007F00003D9002000232370FEBD1A4B8022196804
:10080000102D13D0D2030A431A60102DF1D1164BCC
:1008100016491868FFF782FC0A2358430190019B90
:10082000002BE6D0019B013B0193F8E71204EAE7B5
:10083000AB40916A99432B00103B9162012BD8D8B1
:10084000084B1A68102D03D009490A401A60D0E7F6
:100850000849FAE72022696C18000A436A64C9E76C
:1008600001100000082701400000002040420F0056
:10087000FFFFBFFFFFFF7FFF70B58901002814DA7B
:100880000F23C0B20340083B114A9B089B009B18F2
:10089000032210409040FC321500114085408140F9
:1008A000DC69AC432143D96170BD0325830828402E
:1008B000A840FC352E00074A9B009B18C0228640AA
:1008C0002940814092009C58B44321439950EBE762
:1008D00000ED00E000E100E01F2318401E3B8340D4
:1008E000014A13607047C04600E100E0094A431E18
:1008F000012093420DD8C021074A08485360036A7B
:1009000009061B021B0A0B430362002007239060A9
:1009100013607047FFFFFF0010E000E000ED00E013
:10092000F0B50B6887B0029300230191029ADA4078
:1009300001D107B0F0BD01229A4003920399029AB7
:100940000A40009200D18CE0019A102152681600F2
:100950008E43022E0ED107251D40AD000139A9405E
:10096000DC08A4000419276A8F4301990969A9408A
:100970000F43276203245F00BC40E4430568013E47
:100980002540AC4603251540BD4061460D4305603A
:10099000012E0FD801998668CD682640BD403543A9
:1009A00085604668039915098E4301210D409D40DD
:1009B00035434560C56801992C408D688021BD4054
:1009C00049052C43C4600A424BD00121264C032622
:1009D000A5691E400D43A561A4699D080C400594BE
:1009E000059C0F242149AD00B6006D18B44090213C
:1009F000AF68C905A743002488420CD01C490134C4
:100A0000884208D01B490134884204D01A49033473
:100A1000884200D1023CB44000993C430E00AC60D7
:100A2000164CCD4327683E43D10301D43E002E40EF
:100A300026606768009E3E43910301D43E002E402D
:100A40006660A768009E3E43D10201D43E002E405E
:100A5000A660E668009F3743920201D42E4037001B
:100A6000E760013362E7C046001002400000014029
:100A70000004004800080048000C00480004014041
:100A800000690840411E8841C0B27047002A01D069
:100A9000816170478162FCE7024A536818435060E5
:100AA0007047C046007000400223054A11680B439E
:100AB00013600423034A11690B43136130BF70476D
:100AC0000070004000ED00E0F0B5036885B005005F
:100AD000DB072FD42B689B0700D581E02B681B0711
:100AE00000D5BCE02B685B0700D5DFE02B68DB0698
:100AF0001AD56A69B54C0423012A00D04BE1616B19
:100B000002260B436363636B1A436263FFF7BCFB0C
:100B10000700636B334200D136E1F821626BAB69A9
:100B20008A43DB0013436363296A002900D059E13B
:100B3000002013E00C21A54C62680A40042A06D06C
:100B400063680B40082B0BD16368DB0308D523686F
:100B50009B03BFD56B68002BBCD1012005B0F0BD55
:100B60006B68012B13D1802322685B02134323603F
:100B7000FFF78AFB80260700B60223683342A9D11B
:100B8000FFF782FBC01B6428F7D90320E6E7002BA0
:100B900016D123688E4A80261340236023688D4A2D
:100BA000B60213402360FFF76FFB07002368334250
:100BB00000D18FE7FFF768FBC01B6428F6D9E4E794
:100BC000052B05D180232268DB0213432360CAE78B
:100BD00023687F4A1340236023687E4A1340C6E798
:100BE0000C227A4C6368134206D063681340082BCA
:100BF00010D16368DB030DD423689B0702D5EB6833
:100C0000012BAAD1F82122682B698A43DB00134308
:100C1000236063E7EA680123002A0FD022680226D6
:100C200013432360FFF730FB070023683342E9D109
:100C3000FFF72AFBC01B0228F7D9A6E72268022685
:100C40009A432260FFF720FB07002368334200D15C
:100C500044E7FFF719FBC01B0228F6D995E7EA69BC
:100C600001235A4C002A10D0626A022613436362A1
:100C7000FFF70AFB0700636A334200D032E7FFF751
:100C800003FBC01B0228F6D97FE7626A02269A435B
:100C90006262FFF7F9FA0700636A334200D121E785
:100CA000FFF7F2FAC01B0228F6D96EE78022002176
:100CB000464C5205E3690091134208D1E36913439E
:100CC000E361E36913400393039B012300938027AF
:100CD000414E7F0033683B4206D0AB68012B13D1F5
:100CE000226A1343236230E033683B433360FFF7EB
:100CF000CBFA019033683B42EFD1FFF7C5FA019B75
:100D0000C01A6428F6D940E70122002B14D1236AC7
:100D1000022793432362236A033293432362FFF73C
:100D2000B3FA0600236A3B4225D0FFF7ADFA2B4BFE
:100D3000801B9842F6D928E7052B0BD1216A013B8D
:100D40000B432362236A1A432262FFF79DFA0227AC
:100D500006000DE0236A934304222362236A93432F
:100D6000C0E7FFF791FA1D4B801B984200D90CE7B2
:100D7000236A3B42F5D0009B012B00D0B6E6E36925
:100D8000174A1340E361B1E6FFF77EFAC01B022861
:100D900000D8BEE6F9E6053203D1626B9A4362637E
:100DA000BBE6626B0226134301226363636B9343CA
:100DB0006363FFF769FA0700636B334200D1B3E660
:100DC000FFF762FAC01B0228F6D9DEE600100240E7
:100DD000FFFFFEFFFFFFFBFF0070004088130000D5
:100DE000FFFFFFEF0C22264C012063681340082B05
:100DF00000D1B3E62368234A1340236002292FD190
:100E0000FFF742FA80260700B6042368334221D157
:100E10000F22E36A9343EA6A1343E362696AAB6AA7
:100E200062680B43184980250A401343636080239E
:100E300022685B0413432360FFF726FA0600AD0423
:100E400023682B4200D073E6FFF71EFA801B0228AE
:100E5000F6D99AE6FFF718FAC01B0228D5D994E60E
:100E6000FFF712FA80250600AD0423682B4200D15B
:100E70005EE6FFF709FA801B0228F6D985E6C04630
:100E800000100240FFFFFFFEFFFFC2FF70B5144CD1
:100E900088B010222100684601F00EFA210004AD4E
:100EA00010221031280001F007FA0C220D4E736851
:100EB0001A40082A11D10F206A46990C0140545C4F
:100EC000F26A0240A95CDB0305D50748FFF726F963
:100ED000604308B070BD0548FAE70348F9E7C0462B
:100EE000442B00080010024000127A0000093D0067
:100EF000F7B50122434C060023680F0013408B42D4
:100F00001CD33268930723D4D30729D40123226842
:100F10001A40974267D333683B4C5B076AD4FFF7AC
:100F2000B5FF6368394A1B061B0FD35CD840384BAA
:100F300018600020FFF77EF9002008E02368934343
:100F40000B432360236813409942DAD00120FEBD91
:100F5000F0202D494B688343B06803434B60D3E7CF
:100F6000294D72682B68012A1AD19B03EED5032103
:100F70006B688B4313436B60FFF786F973680190CE
:100F8000012B15D10C226B681340042BBED0FFF748
:100F90007BF9019BC01A1F4B9842F3D90320D6E777
:100FA000022A02D19B01E2D4D0E79B07DFD4CDE730
:100FB000022B12D00C226B681342A7D0FFF764F902
:100FC000019BC01A134B9842F4D9E7E7FFF75CF98D
:100FD000019BC01A0F4B9842E0D80C226B6813405B
:100FE000082BF3D192E722689A43226022681A42C2
:100FF000ACD190E76368084A1340F268134363601A
:101000008DE7C04600200240001002406C2B000813
:101010000000002088130000FFF8FFFF014B186854
:101020007047C04600000020044B054A5B685B0522
:101030005B0FD35C034A1068D84070470010024031
:101040007C2B000800000020F0B5036885B0050087
:10105000DB0328D580220021374C5205E36900913B
:10106000134208D1E3691343E361E3691340039337
:10107000039B012300938027304E7F0033683B425F
:1010800026D0C022236A920013402D4E32D1236A0B
:101090001E406B681E43009B2662012B03D1E3694F
:1010A000284A1340E3612A68D30706D50320224962
:1010B0000B6B8343A86803430B630020930617D58B
:1010C00010211D4A136B8B43E9680B4313630FE038
:1010D00033683B433360FFF7D7F8019033683B42F6
:1010E000CFD1FFF7D1F8019BC01A6428F6D90320AD
:1010F00005B0F0BD69680A409342C8D08023226AD7
:10110000206A11005B0203432362236A0E483140C8
:10111000034023622162D307B9D5FFF7B5F8070072
:101120000222236A1342B2D1FFF7AEF8074BC01B6D
:101130009842F5D9DBE7C04600100240007000403D
:10114000FFFCFFFFFFFFFFEFFFFFFEFF8813000024
:1011500070470000036810B59A680400D2040AD5ED
:10116000DB68DB0507D5FFF7F3FF2168054BCA688D
:10117000D2B21343CB608022034B92025A61012307
:10118000637710BD7FFEFFFF00040140A0210268CD
:10119000F8B5D36804008B43D360FFF775F8FA27DE
:1011A00006002025BF002368DB682B4201D0002009
:1011B000F8BDFFF769F8801BB842F4D90320F7E7C0
:1011C000F8B5402403680500DA68224201D0002007
:1011D000F8BD01225242DA60FFF756F8FA270600FE
:1011E000BF002B68DB682342F1D1FFF74DF8801B6D
:1011F000B842F6D90320EBE770B5040001250028BA
:1012000018D0437FDBB2002B02D1037700F032FF0E
:101210000223CA226377236820005A62773A5A620F
:10122000FFF7CEFF2368051E06D0FF225A62042373
:1012300001256377280070BD9A68174920690A4024
:101240009A60626899680243606902430A439A603F
:10125000E2681A61A268196912040A4380211A61BE
:10126000DA688A43DA609B689B0606D42000FFF7A1
:101270008DFF002801D02368D7E7236807491A6C3F
:101280000A401A641A6CA1690A431A64FF225A625E
:1012900001236377CEE7C046BFFF8FFFFFFFFBFF51
:1012A0000023092803D81B011843C0B270470A382D
:1012B0000133C0B2F5E700000223F7B50D00017F4E
:1012C00004001F00012932D0012143770368017710
:1012D0009B683F3128786E78AF780B40002A28D180
:1012E000002B00D1EB70FFF7DBFF01903000FFF720
:1012F000D7FF06003800FFF7D3FFEF78019B3F04CC
:101300000743180407433602CA22236820005A62A2
:10131000773A5A62FFF754FF3E432368071E12D004
:10132000FF225A62042363770023237701273800C2
:10133000FEBD002B00D1EB7000043602064337439C
:10134000EE783604E0E71448144906401E609A68B7
:1013500028690A409A60EA68996802430A43802132
:101360009A60DA688A43DA609B689B060BD4200097
:10137000FFF70CFF002806D0FF2223685A620423DF
:1013800027776377D2E7FF2223685A6201236377C6
:1013900000232377CBE7C0467F7F7F00FFFFFBFF63
:1013A0000223F7B50D00017F04001E00012931D092
:1013B0000121437701776B78E878AF782E78002A9F
:1013C00048D11032134202D093430A336B70FFF7B7
:1013D00067FF01906878FFF763FF05003800FFF7AB
:1013E0005FFF019B760330431E0406432D02354305
:1013F000CA22236820005A62773A5A62FFF7E0FE59
:101400002368061E08D0FF225A6204236377002354
:10141000237701263000FEBD8021124F3D405D60E4
:10142000DA688A43DA609B689B060BD42000FFF7DA
:10143000ADFE002806D0FF2223685A6204232677D7
:101440006377E6E7FF2223685A620123637700236C
:101450002377DFE700041B0203431F4375033D436B
:10146000C6E7C0463FFFFF000223F0B50C00017F36
:10147000050085B01800012900D182E001216B77B9
:101480002B6829779B683F3120786678A7780B40D6
:10149000002A57D1002B00D1E370FFF701FF019024
:1014A0003000FFF7FDFE06003800FFF7F9FE0700E9
:1014B000631CD87FFFF7F4FE6269E36936021343C9
:1014C000E278120413431F43019B1B041F433E4356
:1014D000CA2263682C490193A369000602932B6812
:1014E00006435A62773A5A629A6801270A409A601C
:1014F000D968264AC9B20A43DA60FEF7C5FE0390EE
:101500002B68DC683C402ED00299019ADE610A43C8
:101510005A648022996852000A439A60802299682E
:1015200052010A4380219A60194A890210680843CF
:1015300010609068014391600020FF225A626F772B
:1015400028771EE0002B00D1E370E3696269000494
:1015500013431F430743E078360200043E43631CF5
:101560000643D87FB4E7FEF78FFE039BC01AFA2329
:101570009B009842C4D9FF2203202B685A626877E7
:101580002C7705B0F0BDC046FFFEFFFF7FFEFFFFDA
:1015900000040140022370B5047F02001800012CF2
:1015A00030D053774B68013810770868002B01D092
:1015B00043004B604B688C6803432343CC68124E56
:1015C00023430C69450023434C69896923430B433A
:1015D000116830430C6C284384430C64086C03434B
:1015E0000B640423086C03430B648021074B09033D
:1015F0001868084318609868014399600020012327
:101600001077537770BDC04680FF00000004014092
:101610007047704770470000036810B59A6804006F
:1016200012040AD5DB681B0507D5FFF7F1FF216817
:10163000154BCA68D2B21343CB6023681A6C5207A9
:101640000BD5DB689B0408D52000FFF7E2FF21687B
:101650000E4BCA68D2B21343CB6023681A6C520790
:101660000BD5DB685B0408D52000FFF7D3FF2168AA
:10167000074BCA68D2B21343CB608022054B1203DA
:101680005A610123637710BD7FF7FFFF7FDFFFFF04
:101690007FBFFFFF0004014070B504000568C26908
:1016A000836800692968034360690343354813432D
:1016B00001400B432B606B683349206A0B40E168A3
:1016C0000B436B60A369A9680343304801400B4397
:1016D0000321AB602E4B1B6B0B402E49C85C802353
:1016E0001B029A422CD1082827D8FEF70DFD0526AB
:1016F0000B261E2626262100FFF796FC6368400075
:101700005B0802E063685808234BC0186168FEF765
:1017100005FD83B200200F22190091430A001B0728
:1017200021685B0F1343CB6070BDFFF7AFFBE5E7AC
:101730006368580880235B02E7E701200023EAE79B
:1017400008281DD8FEF7E0FC051C0A1C141C1C1CF4
:101750001700FFF769FC61684B0802E061680F4BF6
:101760004808C018FEF7DAFC80B2E8600020DBE72A
:10177000FFF78CFBEFE7802361681B024808F0E766
:101780000120D1E7F369FFFFFFCFFFFFFFF4FFFF69
:1017900000100240642B00080024F40000127A00BC
:1017A000436A30B5DA0706D50168284C4A682240FA
:1017B000846A22434A609A0706D50168244C4A6825
:1017C0002240C46A22434A605A0706D50168214C68
:1017D0004A682240046B22434A601A0706D5016812
:1017E0001D4C4A682240446B22434A60DA0606D503
:1017F00001681A4C8A682240846B22438A609A06E8
:1018000006D50168164C8A682240C46B22438A6060
:101810005A0610D50168134D4A68046C2A402243C9
:101820004A6080225203944205D14A680E4C2240FD
:10183000446C22434A601B0606D502680B49536874
:101840000B40816C0B43536030BDC046FFFFFDFF72
:10185000FFFFFEFFFFFFFBFFFF7FFFFFFFEFFFFF2D
:10186000FFDFFFFFFFFFEFFFFFFF9FFFFFFFF7FF20
:1018700070B5041E01D1012070BD050069352B78BB
:10188000DBB2002B04D102006832137000F092FC2E
:101890002423012122682B70136820008B431360DE
:1018A000FFF7FAFE0128E6D0636A002B02D0200081
:1018B000FFF776FF23680B495A6800200A40082189
:1018C0005A609A688A439A60012219680A431A602A
:1018D00022002023E0666A3268342B701370207077
:1018E000CAE7C046FFF7FFFFF8B504000E00150079
:1018F0001F002268D36933409B1B59424B41AB42C6
:1019000001D0002018E0069B0133F3D0069B002B8A
:1019100013D123680C491A6803200A401A609A6898
:10192000A331FF318A439A60220020236932137069
:101930005370002368342370F8BDFEF7A5FC069BA6
:10194000C01B8342D5D2E4E75FFEFFFFF0B507007E
:1019500085B0039369373B7804000D001600022020
:10196000202B46D10138002943D0002A41D08023C2
:10197000A2685B019A4204D12369002B01D1014284
:1019800037D1230068331A780220012A31D001228E
:101990001A700023E36621333B70FEF775FC2300C9
:1019A00050331E805E8080260290760121005231E5
:1019B0000A8892B2002A0DD1039B40210093200097
:1019C000029BFFF791FF002812D1202368343B705F
:1019D00020700EE00B880022013B9BB20B80039B22
:1019E000802100932000029BFFF77EFF002802D099
:1019F000032005B0F0BDA3682268B34208D1236973
:101A0000002B05D12B880235DB05DB0D1385CDE7D7
:101A10002B7801351385C9E7F0B51F0003006A3341
:101A200016001A78040085B00D000220202A39D152
:101A30000138002936D0002E34D08022A16852010E
:101A4000914204D12269002A01D105422AD1220003
:101A5000683211780220012924D00121117000225E
:101A6000E26622321A70FEF70FFC23008021A26882
:101A700058331E805E800390490104338A4215D199
:101A80002269002A10D11E4A1A801E8822005A326A
:101A9000108880B2002810D1230020226A336834D5
:101AA0001A70207005B0F0BDFF22EDE7002AECD1DE
:101AB0002269002AF8D07F22E6E713882021013B23
:101AC0009BB2138020000097039B0022FFF70CFFBE
:101AD000002813D1A268236811008022520191428C
:101AE00007D12269002A04D19B8C33402B80023518
:101AF000CCE79B8C33402B700135C7E70320D1E73F
:101B0000FF0100001FB50C22002101A800F0DDFB41
:101B10000421164C164B6161C2210122236000236F
:101B2000FF3120006360A360E3602261A261E26193
:101B300023626362A162E36223636263FEF762FC75
:101B4000002801D000F01CFA0923019380235B01D7
:101B50000293802301A95B0520000393FEF716FE84
:101B6000002801D000F00CFA1FBDC04694000020F0
:101B70000024014010B5040088B01422002103A8FD
:101B800000F0A3FB144B22689A4222D18020134B11
:101B9000800099690143996180219A69C9020240D4
:101BA0000192019A5A690E480A435A615B690B40D7
:101BB0000293029B022303A9039301330493FEF7CC
:101BC000AFFE00220C201100FEF756FE0C20FEF79F
:101BD00083FE08B010BDC046002401400010024042
:101BE0000004004830B589B01422002103A800F099
:101BF0006CFB8020164B8002596990250143596186
:101C000080215A69C90202400192019A5A69ED0580
:101C10000A435A615B6900220B400293280010219D
:101C2000029BFEF733FF10230024039303A90F3B0D
:101C30002800049305940694FEF772FEE02303A99E
:101C40002800039304940594FEF76AFE09B030BDA2
:101C50000010024010B5102494B03022002108A8D2
:101C600000F033FB22000021684600F02EFB22002A
:101C7000002104A800F029FB1A2308A80893193BA7
:101C80000B930D930C940E940F930024FEF71CFFFE
:101C9000072321000093684699330293019403942B
:101CA000FFF726F9054B04A8049380239B000694B4
:101CB0000593FFF7C9F914B010BDC046010001003B
:101CC000F0B54D248BB0FEF7C7FAFFF7C3FFFFF75F
:101CD00089FFFFF717FF00F055F900F047FA04AB52
:101CE0001C70302304AA9020537000232021C005CB
:101CF0000593FEF7C5FE002812D190204021C005B3
:101D0000FEF7BEFE00280BD190208021C005FEF713
:101D1000B7FE002804D104AB1C70312304AA537011
:101D200090202021C005FEF7ABFE012812D19020A3
:101D30004021C005FEF7A4FE00280BD19020802191
:101D4000C005FEF79DFE002804D14D2304AA1370A0
:101D50001B3B537090202021C005FEF791FE002808
:101D600012D190204021C005FEF78AFE01280BD138
:101D700090208021C005FEF783FE002804D14D236A
:101D800004AA13701A3B537090202021C005FEF75F
:101D900077FE012812D190204021C005FEF770FE89
:101DA00001280BD190208021C005FEF769FE002894
:101DB00004D14D2304AA1370193B537090202021A5
:101DC000C005FEF75DFE002812D190204021C0051D
:101DD000FEF756FE00280BD190208021C005FEF7AB
:101DE0004FFE012804D14D2304AA1370183B5370F1
:101DF0000026FA2335005B00022204A95C48FFF7A5
:101E0000A5FD04AB1B78029304AB5B7800960393AB
:101E10000196574F05AC0F23042221003800FFF72D
:101E2000FBFD3B005A331B88002B3BD1029A2378E1
:101E30009B1A59425941039A63789B1A5A4253415B
:101E4000A2780B40313A51424A411A420BD0E37812
:101E50000A2B08D1EB33FF33042221003800FFF7AF
:101E600075FD01230093029A23789B1A5942594128
:101E7000039A63789B1A5A425341A2780B40303A36
:101E800051424A411A4269D0E3780A2B66D1EB33BA
:101E9000FF33042221003800FFF758FD00230126FC
:101EA0001D000093FEF7F0F9019BC01A642808D9C1
:101EB000FEF7EAF99623013501909B009D4200DD73
:101EC0000026009B012B4CD1902000221021C00540
:101ED000FEF7DCFD274F3800FEF73AFB642138009F
:101EE000FEF780FB3800FEF7DBFB04003800FEF74E
:101EF0005BFBC823A2B25B009A4212D91C4F873BFE
:101F0000FF3B022204A93800FFF720FDA2B21A49C4
:101F100006A800F0E3F9052382B206A93800FFF70E
:101F200015FD012D04DD012301227340134204D16C
:101F300096239B009D4200DC6BE700F023F804230E
:101F400080200E4A4000116800250B431360FEF705
:101F5000A3FDFEF7A9FDFEF79DF95AE7012600252E
:101F6000A0E7902001221021C005FEF78FFDD8E7E1
:101F70000001002094000020682B00080070004041
:101F800070470000F0B5002699B002AF142200217E
:101F900038000EAD00F099F9282231002800019692
:101FA00000F093F91C22310007A800F08EF92F4CA5
:101FB0002F4B200023607F23A36080336660E360A3
:101FC00026616661A661FFF717F9B04201D0FFF7FD
:101FD000D7FF012600233200390020003E707B70BD
:101FE000BB70FB603B61FFF767F9002801D0FFF78A
:101FF000C7FF002301A9012220000E704E708E70D1
:10200000CB70FFF7CDF9002801D0FFF7B9FF00230F
:1020100001226B706B60EB602B616B61AB61EB61FC
:1020200039336B440521DA778023A9705B002900DE
:1020300020002A706B62FFF717FA002801D0FFF723
:102040009FFF08230793002307A9089309930A9386
:102050000B930C93200080330D93FFF79BFA00281D
:1020600001D0FFF78DFF19B0F0BDC046E0000020A1
:1020700000280040094B026810B59A420DD1802318
:10208000074A1B02116A02200B431362002211004F
:10209000FEF7F2FB0220FEF71FFC10BD00280040F7
:1020A0000010024001200A4B82B0996901439961F6
:1020B00080219A69490502400092009ADA690A4330
:1020C000DA61DB690B400193019B02B07047C046A7
:1020D000001002407047FEE77047704710B5FEF7EA
:1020E000CBF810BD10B5044C2000FFF733F82000EA
:1020F000FFF792FA10BDC046E000002010B502487C
:10210000FEF7D4FA10BDC046940000200121114B07
:1021100011481A680A431A605A6802405A601A68DD
:102120000E4802401A601A680D4802401A605A6848
:102130000C4802400F205A60DA6A8243DA621A6B56
:10214000094802401A635A6B8A435A6300229A6014
:102150007047C046001002400CB8FF08FFFFF6FEB3
:10216000FFFFFBFFFFFFC0FFECFEFFFF0F48104B20
:1021700010B5036096239B01436000238360C36016
:1021800003618361C36103623033436280235B0177
:10219000836380230C229B014261C363FFF768FBCA
:1021A000002801D0FFF7ECFE10BDC0460001002062
:1021B0000038014010B5040088B01422002103A8A3
:1021C00000F083F8134B22689A4220D18020124BF2
:1021D000C00199690143996180219A69890202408D
:1021E0000192019A5A6990200A435A615B69C005BD
:1021F0000B400293029BC023DB0003930223049352
:102200000133069303A9023B0793FEF789FB08B04D
:1022100010BDC04600380140001002400D48854600
:102220000D480E490E4A002302E0D458C45004332E
:10223000C4188C42F9D30B4A0B4C002301E0136005
:102240000432A242FBD3FFF761FF00F011F8FFF761
:1022500037FDFEE70010002000000020680000208D
:10226000C02B00086800002074010020FEE7000079
:1022700070B500260C4D0D4C641BA410A64209D16C
:10228000002600F053FC0A4D0A4C641BA410A64221
:1022900005D170BDB300EB5898470136EEE7B300A7
:1022A000EB5898470136F2E7B82B0008B82B000826
:1022B000B82B0008BC2B0008002310B59A4200D1AF
:1022C00010BDCC5CC4540133F8E70300821893427C
:1022D00000D1704719700133F9E700000EB410B552
:1022E0009DB002A9029008610B4882248860486171
:1022F000012040421FABC881084804CBA4000068FD
:1023000001938C8100F06EF80023029A13701DB0C7
:1023100010BC08BC03B01847FFFFFF7F040000207B
:10232000F0B58E6885B007000C00039201939E42C1
:1023300039D890238A89DB001A4234D003250969F1
:1023400023685B1A0293636902985D43EB0F5D1982
:10235000019B6D1001331B18AB4200D91D005305C2
:1023600032D52900380000F031FB061E09D10C23BC
:102370003B6040230120A28940421343A38105B062
:10238000F0BD029A2169FFF797FFA389144A1A400A
:1023900080231343A381029B2661F61826606561A2
:1023A000019EED1AA560019BB34200D21E003200CF
:1023B0000399206800F0ADFAA36800209B1BA3607E
:1023C00023689E192660DAE72A00380000F05CFBDB
:1023D000061EE0D12169380000F0AEFAC7E7C0461A
:1023E0007FFBFFFFF0B59FB0029005938B890F0034
:1023F00016001B0611D50B69002B0ED1402100F0F1
:10240000E5FA38603861002805D10C23029A0138BA
:1024100013601FB0F0BD40237B61002306AD6B61EC
:1024200020336B761033AB7634002378002B47D102
:10243000A31B04930DD0A31B320039000298FFF7B1
:102440006FFF431C00D1B5E06A69049B9446634466
:102450006B612378002B00D1ACE0012200235242B3
:102460006A6002A95432521801342B60EB60AB60F1
:102470001370AB65584E05222178300000F03EFA0B
:10248000621C002820D12968CB0604D5532302AE54
:1024900020309B1918700B0704D553232B2002AE54
:1024A0009B19187023782A2B16D000200A21099B2B
:1024B0002278303A092A55D9002815D0099313E01B
:1024C000252BB5D00134B0E70123801B8340296858
:1024D00014000B432B60CDE7059B181D1B6805906E
:1024E000002B39DB0993140023782E2B0BD1637852
:1024F000621C2A2B3ED1059B02341A1D1B680592D3
:10250000002B34DB0793354E21780322300000F096
:10251000F5F9002806D04023801B83402A68013447
:1025200013432B60217806222D48661C297600F083
:10253000E5F9002846D02B4B002B2FD12968059BAD
:102540000722C90528D59B189343083305936B6967
:10255000039A9B186B6167E75B42EB6002230B43B6
:102560002B60C0E74B4301349B180120A0E70123F7
:102570005B42C7E7002314000A201A006B60217831
:102580003039092903D9002BBDD00792BBE742435C
:10259000013452180123F2E70733D5E705AB009366
:1025A0003A00114B2900029800E000BF0390039B02
:1025B0000133CCD1BB890B985B0600D429E70120FD
:1025C000404226E705AB00933A00074B29000298EA
:1025D00000F07AF8EAE7C046842B00088A2B00084E
:1025E0008E2B00080000000021230008F7B515001D
:1025F00001938A680B6900900C00934200DA130083
:1026000022002B6043321278002A01D001332B6064
:1026100023689B0602D52B6802332B6006272368AC
:102620001F4027D0230043331B785A1E9341226852
:10263000920630D42200019943320098089EB04798
:10264000431C25D0062320682A68E1680340002542
:10265000042B03D18D1AEB43DB171D40A3682269BD
:10266000934201DD9B1AED180027BD4220D10020C6
:1026700010E00137E3682A689B1A9F42D2DA2200F1
:102680000123193201990098089EB047431CF0D1EC
:1026900001204042FEBD3020E11843310870210086
:1026A0005A1C45310978A218433202331170C1E730
:1026B000220001231A3201990098089EB047431C5A
:1026C000E6D00137D1E70000F0B58BB006920A00E2
:1026D00043320793059004920A7E0C00109B6E2AE9
:1026E00000D18FE017D8632A2CD008D8002A00D157
:1026F00099E0582A54D026004236327029E0642AE4
:1027000001D0692AF7D121681A68080623D5111D5E
:102710001960156825E0732A00D188E008D86F2A6F
:1027200029D0702AE7D1202209680A43226003E0F9
:10273000752A20D0782ADED1220078214532117006
:102740006C4A30E00E001A684236111D1960136899
:102750003370012379E04906D9D5111D1960002392
:10276000D55E002D03DA2D23049A6D421370624B5F
:102770000A2703932FE020681968050603D5081D72
:1027800018600D6805E04006F9D50D68081D186051
:10279000ADB2594B082703936F2A18D00A2716E0C9
:1027A00045310A70544A03921A682168101D186056
:1027B0001568080622D5CB0702D5202319432160CE
:1027C0001027002D03D1202322689A432260230082
:1027D000002243331A706368A360002B5CDB042281
:1027E000216891432160002D58D1049E002B64D0B4
:1027F0002600039B42361B7833705EE04806DAD52C
:10280000ADB2D8E709681A68080605D5111D196028
:10281000136862691A6006E04906F7D5111D196050
:102820001368A28A1A800023049E236154E01A6868
:10283000111D1960166800216268300000F05EF812
:10284000002801D0801B6060636823610023049A24
:10285000137041E02369320006990598079DA84747
:10286000431C43D0236800259B070FD4099BE068D5
:1028700098423DDA18003BE0220001231932069904
:102880000598079EB047431C30D00135E368099A8C
:102890009B1A9D42F0DBE9E7002DA9D0049E280099
:1028A0003900FDF7C1FC039B013E5B5C28003370DF
:1028B0003900FDF733FC051EF1D1082F09D123683B
:1028C000DB0706D563682269934202DC3023013EB0
:1028D0003370049B9B1B2361079B09AA0093210073
:1028E000069B0598FFF782FE431CB3D101204042AE
:1028F0000BB0F0BDA62B0008952B0008C9B28218BA
:10290000904201D10020704703788B42FBD0013008
:10291000F6E710B5884202D98B18984208D30023F5
:102920009A4207D0CC5CC4540133F9E78B5C8354E2
:10293000013AFBD210BD000070B50500002910D08F
:102940000C1F2368002B00DAE418280000F0D4F8EC
:102950001D4A1368002B05D163601460280000F045
:10296000CCF870BDA34209D9216860188342F3D125
:1029700018685B6841182160EEE713005A68002A66
:1029800001D0A242F9D919685818A0420BD1206889
:102990000918581819608242E0D11068526841182D
:1029A00019605A60DAE7A04202D90C232B60D5E700
:1029B00021686018824203D1106852684118216072
:1029C00062605C60CAE7C04684000020032370B5E3
:1029D000CD1C9D43083506000C2D1ED20C25A942A6
:1029E0001DD8300000F088F8254A1468210000291D
:1029F00019D1244C2368002B03D1300000F06AF871
:102A000020602900300000F065F8431C2CD10C2315
:102A10003000336000F071F803E0002DDFDA0C23A2
:102A20003360002070BD0B685B1B1AD40B2B03D9DD
:102A30000B60CC18256003E08C420ED163681360F4
:102A4000300000F05AF8200007220B30231D90437D
:102A5000C31AE7D05A42E250E4E74B6863600C00C7
:102A6000EEE70C004968C2E70323C41C9C43A04264
:102A7000E0D0211A300000F02DF8431CDAD1C6E76F
:102A80008400002088000020F8B507000D00160023
:102A9000002905D11100FFF799FF04002000F8BDBF
:102AA000002A03D1FFF748FF3400F7E700F026F8CB
:102AB0002C008642F2D931003800FFF787FF041E50
:102AC000ECD029003200FFF7F7FB29003800FFF7B0
:102AD00033FFE3E7002370B5064C050008002360D0
:102AE00000F014F8431C03D12368002B00D02B60A6
:102AF00070BDC04670010020704770470B1F1B68F7
:102B0000181F002B01DA0B58C0187047054B020044
:102B10001968002901D104491960186882181A60DF
:102B20007047C0468C00002074010020F8B5C046F4
:102B3000F8BC08BC9E467047F8B5C046F8BC08BC57
:042B40009E467047F6
:102B440002030405060708090A0B0C0D0E0F1010EA
:102B54000102030405060708090A0B0C0D0E0F10E9
:102B64000004080225640A000000000000000000C0
:102B7400010203040607080900000000010203041F
:102B8400232D302B2000686C4C0065666745464752
:102B940000303132333435363738394142434445D5
:102BA4004600303132333435363738396162636444
:042BB4006566000052
:042BB800E900000828
:042BBC00C10000084C
:102BC00000127A0008000020000000000000000051
:102BD00000000000000000000000000000000000F5
:102BE00000000000000000000000000000000000E5
:102BF00000000000000000000000000000000000D5
:102C000000000000000000000000000000000000C4
:102C100000000000000000000000000000000000B4
:082C20000000000000000000AC
:040000050800221DB0
:00000001FF
